{
  "contractName": "PonziToken",
  "abi": [
    {
      "inputs": [],
      "payable": false,
      "stateMutability": "nonpayable",
      "type": "constructor"
    },
    {
      "payable": true,
      "stateMutability": "payable",
      "type": "fallback"
    },
    {
      "anonymous": false,
      "inputs": [
        {
          "indexed": true,
          "name": "who",
          "type": "address"
        },
        {
          "indexed": false,
          "name": "newState",
          "type": "uint8"
        }
      ],
      "name": "StateChanged",
      "type": "event"
    },
    {
      "anonymous": false,
      "inputs": [
        {
          "indexed": true,
          "name": "who",
          "type": "address"
        },
        {
          "indexed": false,
          "name": "newPrice",
          "type": "uint256"
        },
        {
          "indexed": false,
          "name": "isFixed",
          "type": "bool"
        }
      ],
      "name": "PriceChanged",
      "type": "event"
    },
    {
      "anonymous": false,
      "inputs": [
        {
          "indexed": false,
          "name": "numberOfTokens",
          "type": "uint256"
        },
        {
          "indexed": true,
          "name": "purchasedBy",
          "type": "address"
        },
        {
          "indexed": true,
          "name": "priceInWei",
          "type": "uint256"
        }
      ],
      "name": "TokensSold",
      "type": "event"
    },
    {
      "anonymous": false,
      "inputs": [
        {
          "indexed": true,
          "name": "to",
          "type": "address"
        },
        {
          "indexed": false,
          "name": "sumInWei",
          "type": "uint256"
        }
      ],
      "name": "Withdrawal",
      "type": "event"
    },
    {
      "anonymous": false,
      "inputs": [
        {
          "indexed": true,
          "name": "from",
          "type": "address"
        },
        {
          "indexed": true,
          "name": "to",
          "type": "address"
        },
        {
          "indexed": false,
          "name": "value",
          "type": "uint256"
        },
        {
          "indexed": false,
          "name": "data",
          "type": "bytes"
        }
      ],
      "name": "Transfer",
      "type": "event"
    },
    {
      "anonymous": false,
      "inputs": [
        {
          "indexed": true,
          "name": "owner",
          "type": "address"
        },
        {
          "indexed": true,
          "name": "spender",
          "type": "address"
        },
        {
          "indexed": false,
          "name": "value",
          "type": "uint256"
        }
      ],
      "name": "Approval",
      "type": "event"
    },
    {
      "anonymous": false,
      "inputs": [
        {
          "indexed": true,
          "name": "from",
          "type": "address"
        },
        {
          "indexed": true,
          "name": "to",
          "type": "address"
        },
        {
          "indexed": false,
          "name": "value",
          "type": "uint256"
        }
      ],
      "name": "Transfer",
      "type": "event"
    },
    {
      "constant": false,
      "inputs": [],
      "name": "initContract",
      "outputs": [
        {
          "name": "",
          "type": "bool"
        }
      ],
      "payable": false,
      "stateMutability": "nonpayable",
      "type": "function"
    },
    {
      "constant": true,
      "inputs": [
        {
          "name": "owner",
          "type": "address"
        }
      ],
      "name": "balanceOf",
      "outputs": [
        {
          "name": "",
          "type": "uint256"
        }
      ],
      "payable": false,
      "stateMutability": "view",
      "type": "function"
    },
    {
      "constant": true,
      "inputs": [],
      "name": "name",
      "outputs": [
        {
          "name": "",
          "type": "string"
        }
      ],
      "payable": false,
      "stateMutability": "view",
      "type": "function"
    },
    {
      "constant": true,
      "inputs": [],
      "name": "symbol",
      "outputs": [
        {
          "name": "",
          "type": "string"
        }
      ],
      "payable": false,
      "stateMutability": "view",
      "type": "function"
    },
    {
      "constant": true,
      "inputs": [],
      "name": "decimals",
      "outputs": [
        {
          "name": "",
          "type": "uint8"
        }
      ],
      "payable": false,
      "stateMutability": "view",
      "type": "function"
    },
    {
      "constant": true,
      "inputs": [],
      "name": "totalSupply",
      "outputs": [
        {
          "name": "",
          "type": "uint256"
        }
      ],
      "payable": false,
      "stateMutability": "view",
      "type": "function"
    },
    {
      "constant": false,
      "inputs": [
        {
          "name": "to",
          "type": "address"
        },
        {
          "name": "value",
          "type": "uint256"
        }
      ],
      "name": "transfer",
      "outputs": [
        {
          "name": "",
          "type": "bool"
        }
      ],
      "payable": false,
      "stateMutability": "nonpayable",
      "type": "function"
    },
    {
      "constant": false,
      "inputs": [
        {
          "name": "from",
          "type": "address"
        },
        {
          "name": "to",
          "type": "address"
        },
        {
          "name": "value",
          "type": "uint256"
        }
      ],
      "name": "transferFrom",
      "outputs": [
        {
          "name": "",
          "type": "bool"
        }
      ],
      "payable": false,
      "stateMutability": "nonpayable",
      "type": "function"
    },
    {
      "constant": false,
      "inputs": [
        {
          "name": "spender",
          "type": "address"
        },
        {
          "name": "value",
          "type": "uint256"
        }
      ],
      "name": "approve",
      "outputs": [
        {
          "name": "",
          "type": "bool"
        }
      ],
      "payable": false,
      "stateMutability": "nonpayable",
      "type": "function"
    },
    {
      "constant": true,
      "inputs": [
        {
          "name": "owner",
          "type": "address"
        },
        {
          "name": "spender",
          "type": "address"
        }
      ],
      "name": "allowance",
      "outputs": [
        {
          "name": "",
          "type": "uint256"
        }
      ],
      "payable": false,
      "stateMutability": "view",
      "type": "function"
    },
    {
      "constant": false,
      "inputs": [
        {
          "name": "spender",
          "type": "address"
        },
        {
          "name": "addedValue",
          "type": "uint256"
        }
      ],
      "name": "increaseApproval",
      "outputs": [
        {
          "name": "",
          "type": "bool"
        }
      ],
      "payable": false,
      "stateMutability": "nonpayable",
      "type": "function"
    },
    {
      "constant": false,
      "inputs": [
        {
          "name": "spender",
          "type": "address"
        },
        {
          "name": "subtractedValue",
          "type": "uint256"
        }
      ],
      "name": "decreaseApproval",
      "outputs": [
        {
          "name": "",
          "type": "bool"
        }
      ],
      "payable": false,
      "stateMutability": "nonpayable",
      "type": "function"
    },
    {
      "constant": false,
      "inputs": [
        {
          "name": "to",
          "type": "address"
        },
        {
          "name": "value",
          "type": "uint256"
        },
        {
          "name": "extraData",
          "type": "bytes"
        }
      ],
      "name": "transferAndCall",
      "outputs": [
        {
          "name": "",
          "type": "bool"
        }
      ],
      "payable": false,
      "stateMutability": "nonpayable",
      "type": "function"
    },
    {
      "constant": false,
      "inputs": [
        {
          "name": "to",
          "type": "address"
        },
        {
          "name": "extraData",
          "type": "bytes"
        }
      ],
      "name": "transferAllAndCall",
      "outputs": [
        {
          "name": "",
          "type": "bool"
        }
      ],
      "payable": false,
      "stateMutability": "nonpayable",
      "type": "function"
    },
    {
      "constant": false,
      "inputs": [],
      "name": "byTokens",
      "outputs": [],
      "payable": true,
      "stateMutability": "payable",
      "type": "function"
    },
    {
      "constant": false,
      "inputs": [],
      "name": "withdraw",
      "outputs": [],
      "payable": false,
      "stateMutability": "nonpayable",
      "type": "function"
    },
    {
      "constant": true,
      "inputs": [
        {
          "name": "owner",
          "type": "address"
        }
      ],
      "name": "pendingWithdrawals",
      "outputs": [
        {
          "name": "",
          "type": "uint256"
        }
      ],
      "payable": false,
      "stateMutability": "view",
      "type": "function"
    },
    {
      "constant": true,
      "inputs": [],
      "name": "state",
      "outputs": [
        {
          "name": "stateString",
          "type": "string"
        }
      ],
      "payable": false,
      "stateMutability": "view",
      "type": "function"
    },
    {
      "constant": true,
      "inputs": [],
      "name": "tokenPriceInWei",
      "outputs": [
        {
          "name": "",
          "type": "uint256"
        }
      ],
      "payable": false,
      "stateMutability": "view",
      "type": "function"
    },
    {
      "constant": true,
      "inputs": [],
      "name": "bank",
      "outputs": [
        {
          "name": "",
          "type": "address"
        }
      ],
      "payable": false,
      "stateMutability": "view",
      "type": "function"
    },
    {
      "constant": true,
      "inputs": [],
      "name": "firstEntranceToSaleStateUNIX",
      "outputs": [
        {
          "name": "",
          "type": "uint256"
        }
      ],
      "payable": false,
      "stateMutability": "view",
      "type": "function"
    },
    {
      "constant": true,
      "inputs": [],
      "name": "priceSetter",
      "outputs": [
        {
          "name": "",
          "type": "address"
        }
      ],
      "payable": false,
      "stateMutability": "view",
      "type": "function"
    },
    {
      "constant": false,
      "inputs": [],
      "name": "disown",
      "outputs": [],
      "payable": false,
      "stateMutability": "nonpayable",
      "type": "function"
    },
    {
      "constant": false,
      "inputs": [
        {
          "name": "newState",
          "type": "string"
        }
      ],
      "name": "setState",
      "outputs": [],
      "payable": false,
      "stateMutability": "nonpayable",
      "type": "function"
    },
    {
      "constant": false,
      "inputs": [
        {
          "name": "newTokenPriceInWei",
          "type": "uint256"
        }
      ],
      "name": "setAndFixTokenPriceInWei",
      "outputs": [],
      "payable": false,
      "stateMutability": "nonpayable",
      "type": "function"
    },
    {
      "constant": false,
      "inputs": [],
      "name": "unfixTokenPriceInWei",
      "outputs": [],
      "payable": false,
      "stateMutability": "nonpayable",
      "type": "function"
    },
    {
      "constant": false,
      "inputs": [
        {
          "name": "newPriceSetter",
          "type": "address"
        }
      ],
      "name": "setPriceSetter",
      "outputs": [],
      "payable": false,
      "stateMutability": "nonpayable",
      "type": "function"
    },
    {
      "constant": false,
      "inputs": [
        {
          "name": "newBank",
          "type": "address"
        }
      ],
      "name": "setBank",
      "outputs": [],
      "payable": false,
      "stateMutability": "nonpayable",
      "type": "function"
    }
  ],
  "bytecode": "0x606060405234156200001057600080fd5b33600360006101000a81548173ffffffffffffffffffffffffffffffffffffffff021916908373ffffffffffffffffffffffffffffffffffffffff16021790555033600560006101000a81548173ffffffffffffffffffffffffffffffffffffffff021916908373ffffffffffffffffffffffffffffffffffffffff16021790555060008060006101000a81548160ff02191690836002811115620000b157fe5b02179055506008600b60006101000a81548160ff021916908360ff1602179055506040805190810160405280600581526020017f506f6e7a69000000000000000000000000000000000000000000000000000000815250600990805190602001906200011f92919062000174565b506040805190810160405280600281526020017f5054000000000000000000000000000000000000000000000000000000000000815250600a90805190602001906200016d92919062000174565b5062000223565b828054600181600116156101000203166002900490600052602060002090601f016020900481019282601f10620001b757805160ff1916838001178555620001e8565b82800160010185558215620001e8579182015b82811115620001e7578251825591602001919060010190620001ca565b5b509050620001f79190620001fb565b5090565b6200022091905b808211156200021c57600081600090555060010162000202565b5090565b90565b61397080620002336000396000f30060606040526004361061016a576000357c0100000000000000000000000000000000000000000000000000000000900463ffffffff16806306fdde03146101a9578063090d23b914610237578063095ea7b3146102705780630f6f5f98146102ca57806318160ddd146102ed5780631e9bf0da1461031657806323b872dd1461032b5780632c09bef7146103a45780632f8de810146103f9578063313ce567146104225780633ccfd60b146104515780634000aea01461046657806363791e3c14610503578063661884631461053c57806368794b871461059657806370a08231146105c457806376cdb03b146106115780638203f5fe1461066657806395d89b4114610693578063a9059cbb14610721578063be1403811461077b578063c19d93fb146107a4578063d73dd62314610832578063d87692d91461088c578063dd62ed3e146108f1578063dec32ae81461095d578063f3f4370314610967578063f5751524146109b4575b600180600281111561017857fe5b6000809054906101000a900460ff16600281111561019257fe5b14151561019e57600080fd5b6101a66109c9565b50005b34156101b457600080fd5b6101bc610ee3565b6040518080602001828103825283818151815260200191508051906020019080838360005b838110156101fc5780820151818401526020810190506101e1565b50505050905090810190601f1680156102295780820380516001836020036101000a031916815260200191505b509250505060405180910390f35b341561024257600080fd5b61026e600480803573ffffffffffffffffffffffffffffffffffffffff16906020019091905050610f8b565b005b341561027b57600080fd5b6102b0600480803573ffffffffffffffffffffffffffffffffffffffff1690602001909190803590602001909190505061113f565b604051808215151515815260200191505060405180910390f35b34156102d557600080fd5b6102eb60048080359060200190919050506113ca565b005b34156102f857600080fd5b610300611570565b6040518082815260200191505060405180910390f35b341561032157600080fd5b61032961157a565b005b341561033657600080fd5b61038a600480803573ffffffffffffffffffffffffffffffffffffffff1690602001909190803573ffffffffffffffffffffffffffffffffffffffff16906020019091908035906020019091905050611632565b604051808215151515815260200191505060405180910390f35b34156103af57600080fd5b6103b76119e0565b604051808273ffffffffffffffffffffffffffffffffffffffff1673ffffffffffffffffffffffffffffffffffffffff16815260200191505060405180910390f35b341561040457600080fd5b61040c611a0a565b6040518082815260200191505060405180910390f35b341561042d57600080fd5b610435611a19565b604051808260ff1660ff16815260200191505060405180910390f35b341561045c57600080fd5b610464611a30565b005b341561047157600080fd5b6104e9600480803573ffffffffffffffffffffffffffffffffffffffff1690602001909190803590602001909190803590602001908201803590602001908080601f01602080910402602001604051908101604052809392919081815260200183838082843782019150505050505091905050611b7c565b604051808215151515815260200191505060405180910390f35b341561050e57600080fd5b61053a600480803573ffffffffffffffffffffffffffffffffffffffff16906020019091905050611f07565b005b341561054757600080fd5b61057c600480803573ffffffffffffffffffffffffffffffffffffffff16906020019091908035906020019091905050612009565b604051808215151515815260200191505060405180910390f35b34156105a157600080fd5b6105c26004808035906020019082018035906020019190919290505061239d565b005b34156105cf57600080fd5b6105fb600480803573ffffffffffffffffffffffffffffffffffffffff169060200190919050506127a4565b6040518082815260200191505060405180910390f35b341561061c57600080fd5b6106246127ed565b604051808273ffffffffffffffffffffffffffffffffffffffff1673ffffffffffffffffffffffffffffffffffffffff16815260200191505060405180910390f35b341561067157600080fd5b610679612817565b604051808215151515815260200191505060405180910390f35b341561069e57600080fd5b6106a6612af2565b6040518080602001828103825283818151815260200191508051906020019080838360005b838110156106e65780820151818401526020810190506106cb565b50505050905090810190601f1680156107135780820380516001836020036101000a031916815260200191505b509250505060405180910390f35b341561072c57600080fd5b610761600480803573ffffffffffffffffffffffffffffffffffffffff16906020019091908035906020019091905050612b9a565b604051808215151515815260200191505060405180910390f35b341561078657600080fd5b61078e612e38565b6040518082815260200191505060405180910390f35b34156107af57600080fd5b6107b7612e42565b6040518080602001828103825283818151815260200191508051906020019080838360005b838110156107f75780820151818401526020810190506107dc565b50505050905090810190601f1680156108245780820380516001836020036101000a031916815260200191505b509250505060405180910390f35b341561083d57600080fd5b610872600480803573ffffffffffffffffffffffffffffffffffffffff16906020019091908035906020019091905050612f88565b604051808215151515815260200191505060405180910390f35b341561089757600080fd5b6108d7600480803573ffffffffffffffffffffffffffffffffffffffff169060200190919080359060200190820180359060200191909192905050613287565b604051808215151515815260200191505060405180910390f35b34156108fc57600080fd5b610947600480803573ffffffffffffffffffffffffffffffffffffffff1690602001909190803573ffffffffffffffffffffffffffffffffffffffff1690602001909190505061339b565b6040518082815260200191505060405180910390f35b6109656109c9565b005b341561097257600080fd5b61099e600480803573ffffffffffffffffffffffffffffffffffffffff16906020019091905050613422565b6040518082815260200191505060405180910390f35b34156109bf57600080fd5b6109c761346b565b005b60008060008060018060028111156109dd57fe5b6000809054906101000a900460ff1660028111156109f757fe5b141515610a0357600080fd5b600154600d60003373ffffffffffffffffffffffffffffffffffffffff1673ffffffffffffffffffffffffffffffffffffffff16815260200190815260200160002054101515610a5257600080fd5b610a5a613609565b6006819055506006543410151515610a7157600080fd5b610ac5600d60003373ffffffffffffffffffffffffffffffffffffffff1673ffffffffffffffffffffffffffffffffffffffff1681526020019081526020016000205460015461367c90919063ffffffff16565b9450610ad334600654613695565b935084841115610bb457849350610aec846006546136b2565b9250610b01833461367c90919063ffffffff16565b9150610b5582600e60003373ffffffffffffffffffffffffffffffffffffffff1673ffffffffffffffffffffffffffffffffffffffff168152602001908152602001600020546136cf90919063ffffffff16565b600e60003373ffffffffffffffffffffffffffffffffffffffff1673ffffffffffffffffffffffffffffffffffffffff16815260200190815260200160002081905550610bad826008546136cf90919063ffffffff16565b6008819055505b610c0684600d60003073ffffffffffffffffffffffffffffffffffffffff1673ffffffffffffffffffffffffffffffffffffffff1681526020019081526020016000205461367c90919063ffffffff16565b600d60003073ffffffffffffffffffffffffffffffffffffffff1673ffffffffffffffffffffffffffffffffffffffff16815260200190815260200160002081905550610c9b84600d60003373ffffffffffffffffffffffffffffffffffffffff1673ffffffffffffffffffffffffffffffffffffffff168152602001908152602001600020546136cf90919063ffffffff16565b600d60003373ffffffffffffffffffffffffffffffffffffffff1673ffffffffffffffffffffffffffffffffffffffff16815260200190815260200160002081905550600360009054906101000a900473ffffffffffffffffffffffffffffffffffffffff1673ffffffffffffffffffffffffffffffffffffffff166108fc610d6c6064610d5e6005610d506008543073ffffffffffffffffffffffffffffffffffffffff163161367c90919063ffffffff16565b6136ed90919063ffffffff16565b61372890919063ffffffff16565b9081150290604051600060405180830381858888f193505050501515610d9157600080fd5b600560009054906101000a900473ffffffffffffffffffffffffffffffffffffffff1673ffffffffffffffffffffffffffffffffffffffff166108fc610df96008543073ffffffffffffffffffffffffffffffffffffffff163161367c90919063ffffffff16565b9081150290604051600060405180830381858888f193505050501515610e1e57600080fd5b610e26613743565b3373ffffffffffffffffffffffffffffffffffffffff163073ffffffffffffffffffffffffffffffffffffffff167fddf252ad1be2c89b69c2b068fc378daa952ba7f163c4a11628f55a4df523b3ef866040518082815260200191505060405180910390a36006543373ffffffffffffffffffffffffffffffffffffffff167f5fb60baabe7cf733eb57af000c64fd127b00865bcc5f520b73e6d8290a37211c866040518082815260200191505060405180910390a35050505050565b610eeb613930565b60098054600181600116156101000203166002900480601f016020809104026020016040519081016040528092919081815260200182805460018160011615610100020316600290048015610f815780601f10610f5657610100808354040283529160200191610f81565b820191906000526020600020905b815481529060010190602001808311610f6457829003601f168201915b5050505050905090565b80600073ffffffffffffffffffffffffffffffffffffffff168173ffffffffffffffffffffffffffffffffffffffff1614158015610ff557503073ffffffffffffffffffffffffffffffffffffffff168173ffffffffffffffffffffffffffffffffffffffff1614155b151561100057600080fd5b600360009054906101000a900473ffffffffffffffffffffffffffffffffffffffff1673ffffffffffffffffffffffffffffffffffffffff163373ffffffffffffffffffffffffffffffffffffffff1614151561105c57600080fd5b60006002541480611084575062bdd8006110816002544261367c90919063ffffffff16565b11155b806110b3575060028081111561109657fe5b6000809054906101000a900460ff1660028111156110b057fe5b14155b15156110be57600080fd5b600073ffffffffffffffffffffffffffffffffffffffff168273ffffffffffffffffffffffffffffffffffffffff16141515156110fa57600080fd5b81600560006101000a81548173ffffffffffffffffffffffffffffffffffffffff021916908373ffffffffffffffffffffffffffffffffffffffff1602179055505050565b60006002600360009054906101000a900473ffffffffffffffffffffffffffffffffffffffff1673ffffffffffffffffffffffffffffffffffffffff163373ffffffffffffffffffffffffffffffffffffffff1614806111c257508060028111156111a657fe5b6000809054906101000a900460ff1660028111156111c057fe5b145b15156111cd57600080fd5b83600073ffffffffffffffffffffffffffffffffffffffff168173ffffffffffffffffffffffffffffffffffffffff161415801561123757503073ffffffffffffffffffffffffffffffffffffffff168173ffffffffffffffffffffffffffffffffffffffff1614155b151561124257600080fd5b60008414806112cd57506000600c60003373ffffffffffffffffffffffffffffffffffffffff1673ffffffffffffffffffffffffffffffffffffffff16815260200190815260200160002060008773ffffffffffffffffffffffffffffffffffffffff1673ffffffffffffffffffffffffffffffffffffffff16815260200190815260200160002054145b15156112d857600080fd5b83600c60003373ffffffffffffffffffffffffffffffffffffffff1673ffffffffffffffffffffffffffffffffffffffff16815260200190815260200160002060008773ffffffffffffffffffffffffffffffffffffffff1673ffffffffffffffffffffffffffffffffffffffff168152602001908152602001600020819055508473ffffffffffffffffffffffffffffffffffffffff163373ffffffffffffffffffffffffffffffffffffffff167f8c5be1e5ebec7d5bd14f71427d1e84f3dd0314c0f7b2291e5b200ac8c7c3b925866040518082815260200191505060405180910390a360019250505092915050565b600060025414806113f2575062bdd8006113ef6002544261367c90919063ffffffff16565b11155b80611421575060028081111561140457fe5b6000809054906101000a900460ff16600281111561141e57fe5b14155b151561142c57600080fd5b600360009054906101000a900473ffffffffffffffffffffffffffffffffffffffff1673ffffffffffffffffffffffffffffffffffffffff163373ffffffffffffffffffffffffffffffffffffffff1614806114d55750600460009054906101000a900473ffffffffffffffffffffffffffffffffffffffff1673ffffffffffffffffffffffffffffffffffffffff163373ffffffffffffffffffffffffffffffffffffffff16145b15156114e057600080fd5b6001600b60016101000a81548160ff021916908315150217905550806006819055503373ffffffffffffffffffffffffffffffffffffffff167f1f5a7db2ed856277a2ace32d94edf854ab01019e7dd852065f1d739d9ac5d170600654600b60019054906101000a900460ff1660405180838152602001821515151581526020019250505060405180910390a250565b6000600754905090565b600280600281111561158857fe5b6000809054906101000a900460ff1660028111156115a257fe5b1415156115ae57600080fd5b600360009054906101000a900473ffffffffffffffffffffffffffffffffffffffff1673ffffffffffffffffffffffffffffffffffffffff163373ffffffffffffffffffffffffffffffffffffffff1614151561160a57600080fd5b600360006101000a81549073ffffffffffffffffffffffffffffffffffffffff021916905550565b60006002600360009054906101000a900473ffffffffffffffffffffffffffffffffffffffff1673ffffffffffffffffffffffffffffffffffffffff163373ffffffffffffffffffffffffffffffffffffffff1614806116b5575080600281111561169957fe5b6000809054906101000a900460ff1660028111156116b357fe5b145b15156116c057600080fd5b83600073ffffffffffffffffffffffffffffffffffffffff168173ffffffffffffffffffffffffffffffffffffffff161415801561172a57503073ffffffffffffffffffffffffffffffffffffffff168173ffffffffffffffffffffffffffffffffffffffff1614155b151561173557600080fd5b61178784600d60008973ffffffffffffffffffffffffffffffffffffffff1673ffffffffffffffffffffffffffffffffffffffff1681526020019081526020016000205461367c90919063ffffffff16565b600d60008873ffffffffffffffffffffffffffffffffffffffff1673ffffffffffffffffffffffffffffffffffffffff1681526020019081526020016000208190555061181c84600d60008873ffffffffffffffffffffffffffffffffffffffff1673ffffffffffffffffffffffffffffffffffffffff168152602001908152602001600020546136cf90919063ffffffff16565b600d60008773ffffffffffffffffffffffffffffffffffffffff1673ffffffffffffffffffffffffffffffffffffffff168152602001908152602001600020819055506118ee84600c60008973ffffffffffffffffffffffffffffffffffffffff1673ffffffffffffffffffffffffffffffffffffffff16815260200190815260200160002060003373ffffffffffffffffffffffffffffffffffffffff1673ffffffffffffffffffffffffffffffffffffffff1681526020019081526020016000205461367c90919063ffffffff16565b600c60008873ffffffffffffffffffffffffffffffffffffffff1673ffffffffffffffffffffffffffffffffffffffff16815260200190815260200160002060003373ffffffffffffffffffffffffffffffffffffffff1673ffffffffffffffffffffffffffffffffffffffff168152602001908152602001600020819055508473ffffffffffffffffffffffffffffffffffffffff168673ffffffffffffffffffffffffffffffffffffffff167fddf252ad1be2c89b69c2b068fc378daa952ba7f163c4a11628f55a4df523b3ef866040518082815260200191505060405180910390a36001925050509392505050565b6000600460009054906101000a900473ffffffffffffffffffffffffffffffffffffffff16905090565b6000611a14613609565b905090565b6000600b60009054906101000a900460ff16905090565b6000600e60003373ffffffffffffffffffffffffffffffffffffffff1673ffffffffffffffffffffffffffffffffffffffff168152602001908152602001600020549050600081111515611a8357600080fd5b6000600e60003373ffffffffffffffffffffffffffffffffffffffff1673ffffffffffffffffffffffffffffffffffffffff16815260200190815260200160002081905550611add8160085461367c90919063ffffffff16565b6008819055503373ffffffffffffffffffffffffffffffffffffffff166108fc829081150290604051600060405180830381858888f193505050501515611b2357600080fd5b611b2b613743565b3373ffffffffffffffffffffffffffffffffffffffff167f7fcf532c15f0a6db0bd6d0e038bea71d30d808c7d98cb3bf7268a95bf5081b65826040518082815260200191505060405180910390a250565b60006002600360009054906101000a900473ffffffffffffffffffffffffffffffffffffffff1673ffffffffffffffffffffffffffffffffffffffff163373ffffffffffffffffffffffffffffffffffffffff161480611bff5750806002811115611be357fe5b6000809054906101000a900460ff166002811115611bfd57fe5b145b1515611c0a57600080fd5b84600073ffffffffffffffffffffffffffffffffffffffff168173ffffffffffffffffffffffffffffffffffffffff1614158015611c7457503073ffffffffffffffffffffffffffffffffffffffff168173ffffffffffffffffffffffffffffffffffffffff1614155b1515611c7f57600080fd5b611cd185600d60003373ffffffffffffffffffffffffffffffffffffffff1673ffffffffffffffffffffffffffffffffffffffff1681526020019081526020016000205461367c90919063ffffffff16565b600d60003373ffffffffffffffffffffffffffffffffffffffff1673ffffffffffffffffffffffffffffffffffffffff16815260200190815260200160002081905550611d6685600d60008973ffffffffffffffffffffffffffffffffffffffff1673ffffffffffffffffffffffffffffffffffffffff168152602001908152602001600020546136cf90919063ffffffff16565b600d60008873ffffffffffffffffffffffffffffffffffffffff1673ffffffffffffffffffffffffffffffffffffffff168152602001908152602001600020819055508573ffffffffffffffffffffffffffffffffffffffff163373ffffffffffffffffffffffffffffffffffffffff167fddf252ad1be2c89b69c2b068fc378daa952ba7f163c4a11628f55a4df523b3ef876040518082815260200191505060405180910390a3611e178661376a565b15611efa57611e2786868661377d565b8573ffffffffffffffffffffffffffffffffffffffff163373ffffffffffffffffffffffffffffffffffffffff167fe19260aff97b920c7df27010903aeb9c8d2be5d310a2c67824cf3f15396e4c1687876040518083815260200180602001828103825283818151815260200191508051906020019080838360005b83811015611ebe578082015181840152602081019050611ea3565b50505050905090810190601f168015611eeb5780820380516001836020036101000a031916815260200191505b50935050505060405180910390a35b6001925050509392505050565b600360009054906101000a900473ffffffffffffffffffffffffffffffffffffffff1673ffffffffffffffffffffffffffffffffffffffff163373ffffffffffffffffffffffffffffffffffffffff16141515611f6357600080fd5b60006002541480611f8b575062bdd800611f886002544261367c90919063ffffffff16565b11155b80611fba5750600280811115611f9d57fe5b6000809054906101000a900460ff166002811115611fb757fe5b14155b1515611fc557600080fd5b80600460006101000a81548173ffffffffffffffffffffffffffffffffffffffff021916908373ffffffffffffffffffffffffffffffffffffffff16021790555050565b6000806002600360009054906101000a900473ffffffffffffffffffffffffffffffffffffffff1673ffffffffffffffffffffffffffffffffffffffff163373ffffffffffffffffffffffffffffffffffffffff16148061208d575080600281111561207157fe5b6000809054906101000a900460ff16600281111561208b57fe5b145b151561209857600080fd5b84600073ffffffffffffffffffffffffffffffffffffffff168173ffffffffffffffffffffffffffffffffffffffff161415801561210257503073ffffffffffffffffffffffffffffffffffffffff168173ffffffffffffffffffffffffffffffffffffffff1614155b151561210d57600080fd5b600c60003373ffffffffffffffffffffffffffffffffffffffff1673ffffffffffffffffffffffffffffffffffffffff16815260200190815260200160002060008773ffffffffffffffffffffffffffffffffffffffff1673ffffffffffffffffffffffffffffffffffffffff1681526020019081526020016000205492508285111561221b576000600c60003373ffffffffffffffffffffffffffffffffffffffff1673ffffffffffffffffffffffffffffffffffffffff16815260200190815260200160002060008873ffffffffffffffffffffffffffffffffffffffff1673ffffffffffffffffffffffffffffffffffffffff168152602001908152602001600020819055506122af565b61222e858461367c90919063ffffffff16565b600c60003373ffffffffffffffffffffffffffffffffffffffff1673ffffffffffffffffffffffffffffffffffffffff16815260200190815260200160002060008873ffffffffffffffffffffffffffffffffffffffff1673ffffffffffffffffffffffffffffffffffffffff168152602001908152602001600020819055505b8573ffffffffffffffffffffffffffffffffffffffff163373ffffffffffffffffffffffffffffffffffffffff167f8c5be1e5ebec7d5bd14f71427d1e84f3dd0314c0f7b2291e5b200ac8c7c3b925600c60003373ffffffffffffffffffffffffffffffffffffffff1673ffffffffffffffffffffffffffffffffffffffff16815260200190815260200160002060008a73ffffffffffffffffffffffffffffffffffffffff1673ffffffffffffffffffffffffffffffffffffffff168152602001908152602001600020546040518082815260200191505060405180910390a36001935050505092915050565b600360009054906101000a900473ffffffffffffffffffffffffffffffffffffffff1673ffffffffffffffffffffffffffffffffffffffff163373ffffffffffffffffffffffffffffffffffffffff161415156123f957600080fd5b60006002541480612421575062bdd80061241e6002544261367c90919063ffffffff16565b11155b80612450575060028081111561243357fe5b6000809054906101000a900460ff16600281111561244d57fe5b14155b151561245b57600080fd5b6040805190810160405280600781526020017f50726553616c65000000000000000000000000000000000000000000000000008152506040518082805190602001908083835b6020831015156124c657805182526020820191506020810190506020830392506124a1565b6001836020036101000a03801982511681845116808217855250505050505090500191505060405180910390206000191682826040518083838082843782019150509250505060405180910390206000191614156125465760008060006101000a81548160ff0219169083600281111561253c57fe5b0217905550612736565b6040805190810160405280600481526020017f53616c65000000000000000000000000000000000000000000000000000000008152506040518082805190602001908083835b6020831015156125b1578051825260208201915060208101905060208303925061258c565b6001836020036101000a0380198251168184511680821785525050505050509050019150506040518091039020600019168282604051808383808284378201915050925050506040518091039020600019161415612644576000600254141561261c57426002819055505b60016000806101000a81548160ff0219169083600281111561263a57fe5b0217905550612735565b6040805190810160405280600981526020017f5075626c696355736500000000000000000000000000000000000000000000008152506040518082805190602001908083835b6020831015156126af578051825260208201915060208101905060208303925061268a565b6001836020036101000a038019825116818451168082178552505050505050905001915050604051809103902060001916828260405180838380828437820191505092505050604051809103902060001916141561272f5760026000806101000a81548160ff0219169083600281111561272557fe5b0217905550612734565b600080fd5b5b5b3373ffffffffffffffffffffffffffffffffffffffff167f20628e08e5aabb4d0033fdf39ce214d8b24483924acea1be5c168206746d5a376000809054906101000a900460ff166040518082600281111561278d57fe5b60ff16815260200191505060405180910390a25050565b6000600d60008373ffffffffffffffffffffffffffffffffffffffff1673ffffffffffffffffffffffffffffffffffffffff168152602001908152602001600020549050919050565b6000600560009054906101000a900473ffffffffffffffffffffffffffffffffffffffff16905090565b6000600360009054906101000a900473ffffffffffffffffffffffffffffffffffffffff1673ffffffffffffffffffffffffffffffffffffffff163373ffffffffffffffffffffffffffffffffffffffff1614151561287557600080fd5b600060015414801561289957506000600b60009054906101000a900460ff1660ff16115b15156128a457600080fd5b6128ce600b60009054906101000a900460ff1660ff16600a0a6103e86136ed90919063ffffffff16565b600181905550612900600b60009054906101000a900460ff1660ff16600a0a6305f5e1006136ed90919063ffffffff16565b60078190555061292f606461292160466007546136ed90919063ffffffff16565b61372890919063ffffffff16565b600d60003373ffffffffffffffffffffffffffffffffffffffff1673ffffffffffffffffffffffffffffffffffffffff168152602001908152602001600020819055506129c6600d60003373ffffffffffffffffffffffffffffffffffffffff1673ffffffffffffffffffffffffffffffffffffffff1681526020019081526020016000205460075461367c90919063ffffffff16565b600d60003073ffffffffffffffffffffffffffffffffffffffff1673ffffffffffffffffffffffffffffffffffffffff16815260200190815260200160002081905550600d60003073ffffffffffffffffffffffffffffffffffffffff1673ffffffffffffffffffffffffffffffffffffffff16815260200190815260200160002054600c60003073ffffffffffffffffffffffffffffffffffffffff1673ffffffffffffffffffffffffffffffffffffffff1681526020019081526020016000206000600360009054906101000a900473ffffffffffffffffffffffffffffffffffffffff1673ffffffffffffffffffffffffffffffffffffffff1673ffffffffffffffffffffffffffffffffffffffff168152602001908152602001600020819055506001905090565b612afa613930565b600a8054600181600116156101000203166002900480601f016020809104026020016040519081016040528092919081815260200182805460018160011615610100020316600290048015612b905780601f10612b6557610100808354040283529160200191612b90565b820191906000526020600020905b815481529060010190602001808311612b7357829003601f168201915b5050505050905090565b60006002600360009054906101000a900473ffffffffffffffffffffffffffffffffffffffff1673ffffffffffffffffffffffffffffffffffffffff163373ffffffffffffffffffffffffffffffffffffffff161480612c1d5750806002811115612c0157fe5b6000809054906101000a900460ff166002811115612c1b57fe5b145b1515612c2857600080fd5b83600073ffffffffffffffffffffffffffffffffffffffff168173ffffffffffffffffffffffffffffffffffffffff1614158015612c9257503073ffffffffffffffffffffffffffffffffffffffff168173ffffffffffffffffffffffffffffffffffffffff1614155b1515612c9d57600080fd5b612cef84600d60003373ffffffffffffffffffffffffffffffffffffffff1673ffffffffffffffffffffffffffffffffffffffff1681526020019081526020016000205461367c90919063ffffffff16565b600d60003373ffffffffffffffffffffffffffffffffffffffff1673ffffffffffffffffffffffffffffffffffffffff16815260200190815260200160002081905550612d8484600d60008873ffffffffffffffffffffffffffffffffffffffff1673ffffffffffffffffffffffffffffffffffffffff168152602001908152602001600020546136cf90919063ffffffff16565b600d60008773ffffffffffffffffffffffffffffffffffffffff1673ffffffffffffffffffffffffffffffffffffffff168152602001908152602001600020819055508473ffffffffffffffffffffffffffffffffffffffff163373ffffffffffffffffffffffffffffffffffffffff167fddf252ad1be2c89b69c2b068fc378daa952ba7f163c4a11628f55a4df523b3ef866040518082815260200191505060405180910390a360019250505092915050565b6000600254905090565b612e4a613930565b60006002811115612e5757fe5b6000809054906101000a900460ff166002811115612e7157fe5b1415612eb4576040805190810160405280600781526020017f50726553616c65000000000000000000000000000000000000000000000000008152509050612f85565b60016002811115612ec157fe5b6000809054906101000a900460ff166002811115612edb57fe5b1415612f1e576040805190810160405280600481526020017f53616c65000000000000000000000000000000000000000000000000000000008152509050612f84565b600280811115612f2a57fe5b6000809054906101000a900460ff166002811115612f4457fe5b1415612f83576040805190810160405280600981526020017f5075626c6963557365000000000000000000000000000000000000000000000081525090505b5b5b90565b60006002600360009054906101000a900473ffffffffffffffffffffffffffffffffffffffff1673ffffffffffffffffffffffffffffffffffffffff163373ffffffffffffffffffffffffffffffffffffffff16148061300b5750806002811115612fef57fe5b6000809054906101000a900460ff16600281111561300957fe5b145b151561301657600080fd5b83600073ffffffffffffffffffffffffffffffffffffffff168173ffffffffffffffffffffffffffffffffffffffff161415801561308057503073ffffffffffffffffffffffffffffffffffffffff168173ffffffffffffffffffffffffffffffffffffffff1614155b151561308b57600080fd5b61311a84600c60003373ffffffffffffffffffffffffffffffffffffffff1673ffffffffffffffffffffffffffffffffffffffff16815260200190815260200160002060008873ffffffffffffffffffffffffffffffffffffffff1673ffffffffffffffffffffffffffffffffffffffff168152602001908152602001600020546136cf90919063ffffffff16565b600c60003373ffffffffffffffffffffffffffffffffffffffff1673ffffffffffffffffffffffffffffffffffffffff16815260200190815260200160002060008773ffffffffffffffffffffffffffffffffffffffff1673ffffffffffffffffffffffffffffffffffffffff168152602001908152602001600020819055508473ffffffffffffffffffffffffffffffffffffffff163373ffffffffffffffffffffffffffffffffffffffff167f8c5be1e5ebec7d5bd14f71427d1e84f3dd0314c0f7b2291e5b200ac8c7c3b925600c60003373ffffffffffffffffffffffffffffffffffffffff1673ffffffffffffffffffffffffffffffffffffffff16815260200190815260200160002060008973ffffffffffffffffffffffffffffffffffffffff1673ffffffffffffffffffffffffffffffffffffffff168152602001908152602001600020546040518082815260200191505060405180910390a360019250505092915050565b60006002600360009054906101000a900473ffffffffffffffffffffffffffffffffffffffff1673ffffffffffffffffffffffffffffffffffffffff163373ffffffffffffffffffffffffffffffffffffffff16148061330a57508060028111156132ee57fe5b6000809054906101000a900460ff16600281111561330857fe5b145b151561331557600080fd5b61339185600d60003373ffffffffffffffffffffffffffffffffffffffff1673ffffffffffffffffffffffffffffffffffffffff1681526020019081526020016000205486868080601f016020809104026020016040519081016040528093929190818152602001838380828437820191505050505050611b7c565b9150509392505050565b6000600c60008473ffffffffffffffffffffffffffffffffffffffff1673ffffffffffffffffffffffffffffffffffffffff16815260200190815260200160002060008373ffffffffffffffffffffffffffffffffffffffff1673ffffffffffffffffffffffffffffffffffffffff16815260200190815260200160002054905092915050565b6000600e60008373ffffffffffffffffffffffffffffffffffffffff1673ffffffffffffffffffffffffffffffffffffffff168152602001908152602001600020549050919050565b60006002541480613493575062bdd8006134906002544261367c90919063ffffffff16565b11155b806134c257506002808111156134a557fe5b6000809054906101000a900460ff1660028111156134bf57fe5b14155b15156134cd57600080fd5b600360009054906101000a900473ffffffffffffffffffffffffffffffffffffffff1673ffffffffffffffffffffffffffffffffffffffff163373ffffffffffffffffffffffffffffffffffffffff1614806135765750600460009054906101000a900473ffffffffffffffffffffffffffffffffffffffff1673ffffffffffffffffffffffffffffffffffffffff163373ffffffffffffffffffffffffffffffffffffffff16145b151561358157600080fd5b6000600b60016101000a81548160ff0219169083151502179055503373ffffffffffffffffffffffffffffffffffffffff167f1f5a7db2ed856277a2ace32d94edf854ab01019e7dd852065f1d739d9ac5d170600654600b60019054906101000a900460ff1660405180838152602001821515151581526020019250505060405180910390a2565b600080600b60019054906101000a900460ff161561362b576006549150613678565b6000600254141561363f5760009150613677565b6136696201518061365b6002544261367c90919063ffffffff16565b61372890919063ffffffff16565b9050613674816138bc565b91505b5b5090565b600082821115151561368a57fe5b818303905092915050565b60006136aa828461372890919063ffffffff16565b905092915050565b60006136c782846136ed90919063ffffffff16565b905092915050565b60008082840190508381101515156136e357fe5b8091505092915050565b60008060008414156137025760009150613721565b828402905082848281151561371357fe5b0414151561371d57fe5b8091505b5092915050565b600080828481151561373657fe5b0490508091505092915050565b6008543073ffffffffffffffffffffffffffffffffffffffff16311015151561376857fe5b565b600080823b905060008111915050919050565b60008390508073ffffffffffffffffffffffffffffffffffffffff1663c0ee0b8a3385856000604051602001526040518463ffffffff167c0100000000000000000000000000000000000000000000000000000000028152600401808473ffffffffffffffffffffffffffffffffffffffff1673ffffffffffffffffffffffffffffffffffffffff16815260200183815260200180602001828103825283818151815260200191508051906020019080838360005b8381101561384d578082015181840152602081019050613832565b50505050905090810190601f16801561387a5780820380516001836020036101000a031916815260200191505b50945050505050602060405180830381600087803b151561389a57600080fd5b6102c65a03f115156138ab57600080fd5b505050604051805190505050505050565b6000600b821115156138e3576138dc6001836136cf90919063ffffffff16565b90506138e8565b600c90505b613929600b60009054906101000a900460ff1660ff16600a0a61391b66038d7ea4c68000846136ed90919063ffffffff16565b61372890919063ffffffff16565b9050919050565b6020604051908101604052806000815250905600a165627a7a72305820aa8711dd0588cfb946c22cefee1b9a068889835bf604cb63e35a577969903c220029",
  "source": "pragma solidity ^0.4.18;\n\nimport \"./SafeMath.sol\";\n\n// see: https://github.com/ethereum/EIPs/blob/master/EIPS/eip-20.md\ncontract ERC20 {\n  function name() public view returns (string);\n  function symbol() public view returns (string);\n  function totalSupply() public view returns (uint256);\n  function balanceOf(address who) public view returns (uint256);\n  function transfer(address to, uint256 value) public returns (bool);\n  function transferFrom(address from, address to, uint256 value) public returns (bool);\n  function approve(address spender, uint256 value) public returns (bool);\n  function allowance(address owner, address spender) public view returns (uint256);\n  event Approval(address indexed owner, address indexed spender, uint256 value);\n  event Transfer(address indexed from, address indexed to, uint256 value);\n}\n\n\n// see: https://github.com/ethereum/EIPs/issues/677\ncontract ERC677Token {\n  function transferAndCall(address receiver, uint amount, bytes data) public returns (bool success);\n  function contractFallback(address to, uint value, bytes data) internal;\n  function isContract(address addr) internal view returns (bool hasCode);\n  event Transfer(address indexed from, address indexed to, uint value, bytes data);\n}\n\n\n// see: https://github.com/ethereum/EIPs/issues/677\ncontract ERC677Recipient {\n  function tokenFallback(address from, uint256 amount, bytes data) public returns (bool success);\n}  \n\n\n/**\n* @dev The token implement ERC20 and ERC677 standarts(see above).\n* use Withdrawal, Restricting Access, State Machine patterns.\n* see: http://solidity.readthedocs.io/en/develop/common-patterns.html\n* use SafeMath library, see above.\n* The owner can intervene in the work of the token only before the expiration\n* DURATION_TO_ACCESS_FOR_OWNER = 144 days. Contract has thee state of working:\n* 1.PreSale - only owner can access to transfer tokens. 2.Sale - contract to sale\n* tokens by func byToken() of fallback, contact and owner can access to transfer tokens. \n* Token price setting by owner or price setter. 3.PublicUse - anyone can transfer tokens.\n*/\ncontract PonziToken is ERC20, ERC677Token {\n  using SafeMath for uint256;\n\n  enum State {\n    PreSale,   //PRE_SALE_STR\n    Sale,      //SALE_STR\n    PublicUse  //PUBLIC_USE_STR\n  }\n  // we need returns string representation of state\n  // because enums are not supported by the ABI, they are just supported by Solidity.\n  // see: http://solidity.readthedocs.io/en/develop/frequently-asked-questions.html#if-i-return-an-enum-i-only-get-integer-values-in-web3-js-how-to-get-the-named-values\n  string private constant PRE_SALE_STR = \"PreSale\";\n  string private constant SALE_STR = \"Sale\";\n  string private constant PUBLIC_USE_STR = \"PublicUse\";\n  State private m_state;\n\n  uint256 private constant DURATION_TO_ACCESS_FOR_OWNER = 144 days;\n  \n  uint256 private m_maxTokensPerAddress;\n  uint256 private m_firstEntranceToSaleStateUNIX;\n  address private m_owner;\n  address private m_priceSetter;\n  address private m_bank;\n  uint256 private m_tokenPriceInWei;\n  uint256 private m_totalSupply;\n  uint256 private m_myDebtInWei;\n  string private m_name;\n  string private m_symbol;\n  uint8 private m_decimals;\n  bool private m_isFixedTokenPrice;\n  \n  mapping(address => mapping (address => uint256)) private m_allowed;\n  mapping(address => uint256) private m_balances;\n  mapping(address => uint256) private m_pendingWithdrawals;\n\n////////////////\n// EVENTS\n//\n  event StateChanged(address indexed who, State newState);\n  event PriceChanged(address indexed who, uint newPrice, bool isFixed);\n  event TokensSold(uint256 numberOfTokens, address indexed purchasedBy, uint256 indexed priceInWei);\n  event Withdrawal(address indexed to, uint sumInWei);\n\n////////////////\n// MODIFIERS - Restricting Access and State Machine patterns\n//\n  modifier atState(State state) {\n    require(m_state == state);\n    _;\n  }\n\n  modifier onlyOwner() {\n    require(msg.sender == m_owner);\n    _;\n  }\n\n  modifier onlyOwnerOrAtState(State state) {\n    require(msg.sender == m_owner || m_state == state); \n    _;\n  }\n  \n  modifier checkAccess() {\n    require(m_firstEntranceToSaleStateUNIX == 0 // solium-disable-line indentation, operator-whitespace\n      || now.sub(m_firstEntranceToSaleStateUNIX) <= DURATION_TO_ACCESS_FOR_OWNER \n      || m_state != State.PublicUse\n    ); \n    _;\n    // owner has not access if duration To Access For Owner was passed \n    // and (&&) contract in PublicUse state.\n  }\n  \n  modifier validRecipient(address recipient) {\n    require(recipient != address(0) && recipient != address(this));\n    _;\n  }\n\n///////////////\n// CONSTRUCTOR\n//  \n  /**\n  * @dev constructor PonziToken.\n  */\n  function PonziToken() public {\n    m_owner = msg.sender;\n    m_bank = msg.sender;\n    m_state = State.PreSale;\n    m_decimals = 8;\n    m_name = \"Ponzi\";\n    m_symbol = \"PT\";\n  }\n\n  /**\n  * do not forget about:\n  * https://medium.com/codetractio/a-look-into-paritys-multisig-wallet-bug-affecting-100-million-in-ether-and-tokens-356f5ba6e90a\n  * \n  * @dev initialize the contract, only owner can call and only once.\n  * @return Whether successful or not.\n  */\n  function initContract() \n    public \n    onlyOwner() \n    returns (bool)\n  {\n    require(m_maxTokensPerAddress == 0 && m_decimals > 0);\n    m_maxTokensPerAddress = uint256(1000).mul(uint256(10)**uint256(m_decimals));\n\n    m_totalSupply = uint256(100000000).mul(uint256(10)**uint256(m_decimals));\n    // 70% for owner\n    m_balances[msg.sender] = m_totalSupply.mul(uint256(70)).div(uint256(100));\n    // 30% for sale\n    m_balances[address(this)] = m_totalSupply.sub(m_balances[msg.sender]);\n\n    // allow owner to transfer token from this  \n    m_allowed[address(this)][m_owner] = m_balances[address(this)];\n    return true;\n  }\n\n///////////////////\n// ERC20 Methods\n// get from https://github.com/OpenZeppelin/zeppelin-solidity/tree/master/contracts/token/ERC20\n//\n  /**\n  * @dev Gets the balance of the specified address.\n  * @param owner The address to query the the balance of.\n  * @return An uint256 representing the amount owned by the passed address.\n  */\n  function balanceOf(address owner) public view returns (uint256) {\n    return m_balances[owner];\n  }\n  \n  /**\n  * @dev the name of the token.\n  * @return the name of the token.\n  */\n  function name() public view returns (string) {\n    return m_name;\n  }\n\n  /**\n  * @dev the symbol of the token.\n  * @return the symbol of the token.\n  */\n  function symbol() public view returns (string) {\n    return m_symbol;\n  }\n\n  /**\n  * @dev the number of decimals the token.\n  * @return the number of decimals the token.\n  * @notice uses - e.g. 8, means to divide the token.\n  * amount by 100000000 to get its user representation.\n  */\n  function decimals() public view returns (uint8) {\n    return m_decimals;\n  }\n\n  /**\n  * @dev total number of tokens in existence.\n  * @return total number of tokens in existence.\n  */\n  function totalSupply() public view returns (uint256) {\n    return m_totalSupply;\n  }\n\n  /**\n  * @dev transfer token for a specified address.\n  * @param to The address to transfer to.\n  * @param value The amount to be transferred.\n  * @return Whether successful or not.\n  */\n  function transfer(address to, uint256 value) \n    public \n    onlyOwnerOrAtState(State.PublicUse)\n    validRecipient(to)\n    returns (bool) \n  {\n    // require(value <= m_balances[msg.sender]);\n    // SafeMath.sub will already throw if this condition is not met\n    m_balances[msg.sender] = m_balances[msg.sender].sub(value);\n    m_balances[to] = m_balances[to].add(value);\n    Transfer(msg.sender, to, value);\n    return true;\n  }\n\n  /**\n   * @dev Transfer tokens from one address to another.\n   * @param from address The address which you want to send tokens from.\n   * @param to address The address which you want to transfer to.\n   * @param value uint256 the amount of tokens to be transferred.\n   * @return Whether successful or not.\n   */\n  function transferFrom(address from, address to, uint256 value) \n    public\n    onlyOwnerOrAtState(State.PublicUse)\n    validRecipient(to)\n    returns (bool) \n  {\n    // require(value <= m_balances[from]);\n    // require(value <= m_allowed[from][msg.sender]);\n    // SafeMath.sub will already throw if this condition is not met\n    m_balances[from] = m_balances[from].sub(value);\n    m_balances[to] = m_balances[to].add(value);\n    m_allowed[from][msg.sender] = m_allowed[from][msg.sender].sub(value);\n    Transfer(from, to, value);\n    return true;\n  }\n\n  /**\n   * @dev Approve the passed address to spend the specified amount of tokens on behalf of msg.sender.\n   * @param spender The address which will spend the funds.\n   * @param value The amount of tokens to be spent.\n   * @return Whether successful or not.\n   */\n  function approve(address spender, uint256 value) \n    public\n    onlyOwnerOrAtState(State.PublicUse)\n    validRecipient(spender)\n    returns (bool) \n  {\n    // To change the approve amount you first have to reduce the addresses`\n    // allowance to zero by calling `approve(spender,0)` if it is not\n    // already 0 to mitigate the race condition described here:\n    // https://github.com/ethereum/EIPs/issues/20#issuecomment-263524729\n    require((value == 0) || (m_allowed[msg.sender][spender] == 0));\n\n    m_allowed[msg.sender][spender] = value;\n    Approval(msg.sender, spender, value);\n    return true;\n  }\n\n  /**\n   * @dev Function to check the amount of tokens that an owner allowed to a spender.\n   * @param owner address The address which owns the funds.\n   * @param spender address The address which will spend the funds.\n   * @return A uint256 specifying the amount of tokens still available for the spender.\n   */\n  function allowance(address owner, address spender) \n    public \n    view\n    returns (uint256) \n  {\n    return m_allowed[owner][spender];\n  }\n  \n  /**\n   * approve should be called when allowed[spender] == 0. To increment\n   * allowed value is better to use this function to avoid 2 calls (and wait until\n   * the first transaction is mined)\n   * From MonolithDAO Token.sol.\n   *\n   * @dev Increase the amount of tokens that an owner allowed to a spender.\n   * @param spender The address which will spend the funds.\n   * @param addedValue The amount of tokens to increase the allowance by.\n   * @return Whether successful or not.\n   */\n  function increaseApproval(address spender, uint addedValue) \n    public \n    onlyOwnerOrAtState(State.PublicUse)\n    validRecipient(spender)\n    returns (bool) \n  {\n    m_allowed[msg.sender][spender] = m_allowed[msg.sender][spender].add(addedValue);\n    Approval(msg.sender, spender, m_allowed[msg.sender][spender]);\n    return true;\n  }\n\n   /**\n   * approve should be called when allowed[spender] == 0. To decrement\n   * allowed value is better to use this function to avoid 2 calls (and wait until\n   * the first transaction is mined)\n   * From MonolithDAO Token.sol.\n   *\n   * @dev Decrease the amount of tokens that an owner allowed to a spender.\n   * @param spender The address which will spend the funds.\n   * @param subtractedValue The amount of tokens to decrease the allowance by.\n   * @return Whether successful or not.\n   */\n  function decreaseApproval(address spender, uint subtractedValue) \n    public\n    onlyOwnerOrAtState(State.PublicUse)\n    validRecipient(spender)\n    returns (bool) \n  {\n    uint oldValue = m_allowed[msg.sender][spender];\n    if (subtractedValue > oldValue) {\n      m_allowed[msg.sender][spender] = 0;\n    } else {\n      m_allowed[msg.sender][spender] = oldValue.sub(subtractedValue);\n    }\n    Approval(msg.sender, spender, m_allowed[msg.sender][spender]);\n    return true;\n  }\n\n///////////////////\n// ERC677 Methods\n//\n  /**\n  * @dev transfer token to a contract address with additional data if the recipient is a contact.\n  * @param to The address to transfer to.\n  * @param value The amount to be transferred.\n  * @param extraData The extra data to be passed to the receiving contract.\n  * @return Whether successful or not.\n  */\n  function transferAndCall(address to, uint256 value, bytes extraData) \n    public\n    onlyOwnerOrAtState(State.PublicUse)\n    validRecipient(to)\n    returns (bool)\n  {\n    // require(value <= m_balances[msg.sender]);\n    // SafeMath.sub will throw if there is not enough balance.\n    m_balances[msg.sender] = m_balances[msg.sender].sub(value);\n    m_balances[to] = m_balances[to].add(value);\n    Transfer(msg.sender, to, value);\n    if (isContract(to)) {\n      contractFallback(to, value, extraData);\n      Transfer(msg.sender, to, value, extraData);\n    }\n    return true;\n  }\n\n  /**\n  * @dev transfer token all tokens to a contract address with additional data if the recipient is a contact.\n  * @param to The address to transfer all to.\n  * @param extraData The extra data to be passed to the receiving contract.\n  * @return Whether successful or not.\n  */\n  function transferAllAndCall(address to, bytes extraData) \n    external\n    onlyOwnerOrAtState(State.PublicUse)\n    returns (bool) \n  {\n    return transferAndCall(to, m_balances[msg.sender], extraData);\n  }\n  \n  /**\n  * @dev call ERC677 tokenFallback for ERC677Recipient contract.\n  * @param to The address of ERC677Recipient.\n  * @param value Amount of tokens with was sended\n  * @param data sended to ERC677Recipient.\n  * @return Whether contract or not.\n  */\n  function contractFallback(address to, uint value, bytes data)\n    internal\n  {\n    ERC677Recipient recipient = ERC677Recipient(to);\n    recipient.tokenFallback(msg.sender, value, data);\n  }\n\n  /**\n  * @dev check addr if is contract.\n  * @param addr The address that checking.\n  * @return Whether contract or not.\n  */\n  function isContract(address addr) internal view returns (bool) {\n    uint length;\n    assembly { length := extcodesize(addr) }\n    return length > 0;\n  }\n  \n  \n///////////////////\n// payable Methods\n// use withdrawal pattern \n// see: http://solidity.readthedocs.io/en/develop/common-patterns.html#withdrawal-from-contracts\n// see: https://consensys.github.io/smart-contract-best-practices/known_attacks/\n//\n  /**\n  * recived ETH converted to tokens amount for price. sender has max limit for tokens \n  * amount as m_maxTokensPerAddress - balanceOf(sender). if amount <= max limit\n  * then transfer amount from this to sender and 95%ETH to bank, 5%ETH to owner.\n  * else amount > max limit then we calc cost of max limit of tokens,\n  * store this cost in m_pendingWithdrawals[sender] and m_myDebtInWei and \n  * transfer max limit of tokens from this to sender and 95% max limit cost to bank\n  * 5% max limit cost to owner.\n  *\n  * @dev contract receive ETH (payable) from sender and transfer some amount of tokens to him.\n  */\n  function byTokens() public payable atState(State.Sale) {\n    // check if msg.sender can to by tokens \n    require(m_balances[msg.sender] < m_maxTokensPerAddress);\n\n    // get actual token price and set it\n    m_tokenPriceInWei = calcTokenPriceInWei();\n    \n    // check if msg.value has enough for by 1 token\n    require(msg.value >= m_tokenPriceInWei);\n    \n    // calc max available tokens for sender\n    uint256 maxAvailableTokens = m_maxTokensPerAddress.sub(m_balances[msg.sender]);\n    \n    // convert msg.value(wei) to tokens\n    uint256 tokensAmount = weiToTokens(msg.value, m_tokenPriceInWei);\n    \n    if (tokensAmount > maxAvailableTokens) {\n      // we CANT transfer all tokens amount, ONLY max available tokens \n      // calc cost in wei of max available tokens\n      // subtract cost from msg.value and store it as debt for sender\n      tokensAmount = maxAvailableTokens;  \n      // calc cost\n      uint256 tokensAmountCostInWei = tokensToWei(tokensAmount, m_tokenPriceInWei);\n      // calc debt\n      uint256 debt = msg.value.sub(tokensAmountCostInWei);\n      // Withdrawal pattern avoid Re-Entrancy (dont use transfer to unknow address)\n      // update pending withdrawals\n      m_pendingWithdrawals[msg.sender] = m_pendingWithdrawals[msg.sender].add(debt);\n      // update my debt\n      m_myDebtInWei = m_myDebtInWei.add(debt);\n    }\n    // transfer tokensAmount tokens form this to sender\n    // SafeMath.sub will already throw if this condition is not met\n    m_balances[address(this)] = m_balances[address(this)].sub(tokensAmount);\n    m_balances[msg.sender] = m_balances[msg.sender].add(tokensAmount);\n\n    // we can transfer eth to owner and bank, because we know that they \n    // dont use Re-Entrancy and other attacks.\n    // transfer 5% of eht-myDebt to owner\n    // owner cant be equal address(0) because this function to be accessible\n    // only in State.Sale but owner can be equal address(0), only in State.PublicUse\n    // State.Sale not equal State.PublicUse!\n    m_owner.transfer(this.balance.sub(m_myDebtInWei).mul(uint256(5)).div(uint256(100)));\n    // transfer 95% of eht-myDebt to bank\n    // bank cant be equal address(0) see setBank() and PonziToken()\n    m_bank.transfer(this.balance.sub(m_myDebtInWei));\n    checkValidityOfBalance(); // this.balance >= m_myDebtInWei\n    Transfer(address(this), msg.sender, tokensAmount);\n    TokensSold(tokensAmount, msg.sender, m_tokenPriceInWei); \n  }\n  \n  /**\n  * @dev sender receive his pending withdrawals(if > 0).\n  */\n  function withdraw() external {\n    uint amount = m_pendingWithdrawals[msg.sender];\n    require(amount > 0);\n    // set zero the pending refund before\n    // sending to prevent Re-Entrancy \n    m_pendingWithdrawals[msg.sender] = 0;\n    m_myDebtInWei = m_myDebtInWei.sub(amount);\n    msg.sender.transfer(amount);\n    checkValidityOfBalance(); // this.balance >= m_myDebtInWei\n    Withdrawal(msg.sender, amount);\n  }\n\n  /**\n  * @notice http://solidity.readthedocs.io/en/develop/contracts.html#fallback-function\n  * we dont need recieve ETH always, only in State.Sale from externally accounts.\n  *\n  * @dev fallback func, call byTokens().\n  */\n  function() public payable atState(State.Sale) {\n    byTokens();\n  }\n    \n  \n////////////////////////\n// external view methods\n// everyone outside has access \n//\n  /**\n  * @dev Gets the pending withdrawals of the specified address.\n  * @param owner The address to query the pending withdrawals of.\n  * @return An uint256 representing the amount withdrawals owned by the passed address.\n  */\n  function pendingWithdrawals(address owner) external view returns (uint256) {\n    return m_pendingWithdrawals[owner];\n  }\n  \n  /**\n  * @dev contract work state.\n  * @return contract work state via string.\n  */\n  function state() external view returns (string stateString) {\n    if (m_state == State.PreSale) {\n      stateString = PRE_SALE_STR;\n    } else if (m_state == State.Sale) {\n      stateString = SALE_STR;\n    } else if (m_state == State.PublicUse) {\n      stateString = PUBLIC_USE_STR;\n    }\n  }\n  \n  /**\n  * @dev price of one token in wei.\n  * @return price of one token in wei.\n  */\n  function tokenPriceInWei() public view returns (uint256) {\n    return calcTokenPriceInWei();\n  }\n  \n  /**\n  * @dev address of the bank.\n  * @return address of the bank. \n  */\n  function bank() external view returns(address) {\n    return m_bank;\n  }\n  \n  /**\n  * @dev timestamp of first entrance to sale state.\n  * @return timestamp of first entrance to sale state.\n  */\n  function firstEntranceToSaleStateUNIX() \n    external\n    view \n    returns(uint256) \n  {\n    return m_firstEntranceToSaleStateUNIX;\n  }\n  \n  /**\n  * @dev address of the price setter.\n  * @return address of the price setter.\n  */\n  function priceSetter() external view returns (address) {\n    return m_priceSetter;\n  }\n\n////////////////////\n// public methods\n// only for owner\n//\n  /**\n  * @dev owner do disown.\n  */ \n  function disown() external atState(State.PublicUse) onlyOwner() {\n    delete m_owner;\n  }\n  \n  /**\n  * @dev set state of contract working.\n  * @param newState string representation of new state.\n  */ \n  function setState(string newState) \n    external \n    onlyOwner()\n    checkAccess()\n  {\n    if (keccak256(newState) == keccak256(PRE_SALE_STR)) {\n      m_state = State.PreSale;\n    } else if (keccak256(newState) == keccak256(SALE_STR)) {\n      if (m_firstEntranceToSaleStateUNIX == 0) \n        m_firstEntranceToSaleStateUNIX = now;\n        \n      m_state = State.Sale;\n    } else if (keccak256(newState) == keccak256(PUBLIC_USE_STR)) {\n      m_state = State.PublicUse;\n    } else {\n      // if newState not valid string\n      revert();\n    }\n    StateChanged(msg.sender, m_state);\n  }\n\n  /**\n  * if token price not fix then actual price \n  * always will be tokenPriceInWeiForDay(day).\n  *\n  * @dev set price of one token in wei and fix it.\n  * @param newTokenPriceInWei price of one token in wei.\n  */ \n  function setAndFixTokenPriceInWei(uint256 newTokenPriceInWei) \n    external\n    checkAccess()\n  {\n    require(msg.sender == m_owner || msg.sender == m_priceSetter);\n    m_isFixedTokenPrice = true;\n    m_tokenPriceInWei = newTokenPriceInWei;\n    PriceChanged(msg.sender, m_tokenPriceInWei, m_isFixedTokenPrice);\n  }\n  \n  /**\n  * if token price is unfixed then actual will be tokenPriceInWeiForDay(day).\n  * \n  * @dev unfix token price.\n  */\n  function unfixTokenPriceInWei() \n    external\n    checkAccess()\n  {\n    require(msg.sender == m_owner || msg.sender == m_priceSetter);\n    m_isFixedTokenPrice = false;\n    PriceChanged(msg.sender, m_tokenPriceInWei, m_isFixedTokenPrice);\n  }\n  \n  /**\n  * @dev set the PriceSetter address, which has access to set one token price in wei.\n  * @param newPriceSetter The address of new PriceSetter.\n  */\n  function setPriceSetter(address newPriceSetter) \n    external \n    onlyOwner() \n    checkAccess()\n  {\n    m_priceSetter = newPriceSetter;\n  }\n\n  /**\n  * @dev set the bank, which receive 95%ETH from tokens sale.\n  * @param newBank The address of new bank.\n  */\n  function setBank(address newBank) \n    external\n    validRecipient(newBank) \n    onlyOwner()\n    checkAccess()\n  {\n    require(newBank != address(0));\n    m_bank = newBank;\n  }\n\n////////////////////////\n// internal pure methods\n//\n  /**\n  * @dev conver token to wei.\n  * @param tokensAmount .\n  * @param tokenPrice one token price in wei.\n  * @return weiAmount . \n  */\n  function tokensToWei(uint256 tokensAmount, uint256 tokenPrice) \n    internal\n    pure\n    returns(uint256 weiAmount)\n  {\n    weiAmount = tokensAmount.mul(tokenPrice); \n  }\n  \n  /**\n  * @dev conver wei to token.\n  * @param weiAmount .\n  * @param tokenPrice one token price in wei.\n  * @return tokensAmount . \n  */\n  function weiToTokens(uint256 weiAmount, uint256 tokenPrice) \n    internal \n    pure \n    returns(uint256 tokensAmount) \n  {\n    tokensAmount = weiAmount.div(tokenPrice);\n  }\n \n////////////////////////\n// private view methods\n//\n  /**\n  * @dev get actual token price.\n  * @return price . \n  */\n  function calcTokenPriceInWei() \n    private \n    view \n    returns(uint256 price) \n  {\n    if (m_isFixedTokenPrice) {\n      // price is fixed, return current val\n      price = m_tokenPriceInWei;\n    } else {\n      // price not fixed, we must to calc price\n      if (m_firstEntranceToSaleStateUNIX == 0) {\n        // if contract dont enter to SaleState then price = 0 \n        price = 0;\n      } else {\n        // calculate day after first Entrance To Sale State\n        uint256 day = now.sub(m_firstEntranceToSaleStateUNIX).div(1 days);\n        // use special formula for calcutation price\n        price = tokenPriceInWeiForDay(day);\n      }\n    } \n  }\n  \n  /**\n  * @dev get token price for day after starting sale tokens.\n  * @param day .\n  * @return price . \n  */\n  function tokenPriceInWeiForDay(uint256 day) \n    private \n    view \n    returns(uint256 price)\n  {\n    // day 1:   price 1*10^(decimals) TOKEN = 0.001 ETH\n    //          price 1 TOKEN = 1 * 10^(-3) ETH / 10^(decimals), in ETH\n    //          convert to wei:\n    //          price 1 TOKEN = 1 * 10^(-3) * wei * 10^(-decimals)\n    //          price 1 TOKEN = 1 * 10^(-3) * 10^(18) * 10^(-decimals)\n    //          price 1 TOKEN = 1 * 10^(15) * 10^(-decimals), in WEI\n    \n    // day 2:   price 1*10^(decimals) TOKEN = 0.002 ETH;\n    //          price 1 TOKEN = 2 * 10^(15) * 10^(-decimals), in WEI\n    // ...\n    // day 12:  price 1*10^(decimals) TOKEN = 0.012 ETH;\n    //          price 1 TOKEN = 12 * 10^(15) * 10^(-decimals), in WEI\n    \n    // day >12: price 1*10^(decimals) TOKEN = 0.012 ETH;\n    //          price 1 TOKEN = 12 * 10^(15) * 10^(-decimals), in WEI\n\n    // from 0 to 11 - sum is 12 days\n    if (day <= 11) \n      price = day.add(1);// because from >0h to <24h after start day will be 0, \n    else                 // but for calc price it must be 1;\n      price = 12;\n    // convert to WEI\n    price = price.mul(uint256(10**15)).div(10**uint256(m_decimals));\n  }\n  \n  /**\n  * @notice it is always must be true, for correct withdrawals and receivers ETH.\n  *\n  * check if this.balance >= m_myDebtInWei.\n  */\n  function checkValidityOfBalance() private view {\n    // assertion is not a strict equality of the balance because the contract \n    // can be forcibly sent ether without going through the byTokens() func.\n    // selfdestruct does not trigger a contract's fallback function. \n    // see: http://solidity.readthedocs.io/en/develop/contracts.html#fallback-function\n    assert(this.balance >= m_myDebtInWei);\n  }\n}\n\n ",
  "sourcePath": "/Users/office/Desktop/GAME/Token/contracts/PonziToken.sol",
  "compiler": {
    "name": "solc",
    "version": "0.4.19+commit.c4cbbb05.Emscripten.clang"
  },
  "schemaVersion": "2.0.0",
  "updatedAt": "2018-03-12T23:30:06.976Z"
}